:020000040800F2
:10000000D0430020C501000875040008D70300088C
:100010007104000827030008E10C0008000000003C
:10002000000000000000000000000000DF0A0008DF
:10003000D503000800000000DD0A0008E10A0008FE
:10004000DF010008DF010008DF010008DF01000810
:10005000DF010008DF010008DF010008DF01000800
:10006000DF010008DF010008DF010008DF010008F0
:10007000DF010008DF010008DF010008DF010008E0
:10008000DF010008DF010008DF010008DF010008D0
:10009000DF010008DF010008DF010008DF010008C0
:1000A000DF010008DF010008DF010008DF010008B0
:1000B000DF010008DF010008DF010008DF010008A0
:1000C000DF010008DF010008DF010008DF01000890
:1000D000DF010008BD0B0008DF010008DF01000898
:1000E000DF010008DF010008DF010008DF01000870
:1000F000DF010008DF010008DF010008DF01000860
:10010000DF010008DF010008DF010008DF0100084F
:10011000DF010008DF010008DF010008DF0100083F
:10012000DF010008DF0100082D030008DF010008DF
:10013000DF010008DF010008DF010008DF0100081F
:10014000DF010008DF010008DF010008DF0100080F
:10015000DF010008DF010008DF010008DF010008FF
:10016000DF010008DF010008DF010008DF010008EF
:10017000DF010008DF010008DF01000800000000C7
:10018000DF010008DF010008DF010008DF010008CF
:10019000DF010008DF010008DF01000800000000A7
:1001A000DF010008DF010008DF010008DFF810D0E0
:1001B00000F07CF8004800478D430008AFF3008052
:1001C000D04300200648804706480047FEE7FEE788
:1001D000FEE7FEE7FEE7FEE7FEE7FEE7FEE7FEE7F7
:1001E000E90A0008AD0100082DE9F05F054600208E
:1001F00092469B4688460646814640241BE0284698
:1002000041464746224600F041F853465A46C01A36
:10021000914110D311461846224600F028F82D1AB5
:1002200067EB01084F4622460120002100F01FF82D
:1002300017EB00094E41201EA4F10104DFDC484603
:1002400031462A464346BDE8F09FD2B201E000F8AD
:10025000012B491EFBD270470022F6E710B513466A
:100260000A4604461946FFF7F0FF204610BD202A33
:1002700004DB203A00FA02F1002070479140C2F1FD
:10028000200320FA03F3194390407047202A04DB2F
:10029000203A21FA02F00021704721FA02F3D040FF
:1002A000C2F120029140084319467047064C074DA1
:1002B00006E0E06840F0010394E807009847103436
:1002C000AC42F6D3FFF776FF787101089871010808
:1002D00070B58C1810F8015B15F0070301D110F808
:1002E000013B2A1106D110F8012B03E010F8016B35
:1002F00001F8016B5B1EF9D12B0705D40023521EB8
:100300000DD401F8013BFAE710F8013BCB1A921C1F
:1003100003E013F8015B01F8015B521EF9D5A1421D
:10032000D8D3002070BD00BFFEE7000010B520222A
:100330000221054802F0B1F9012804D1202202214E
:10034000014802F08BF910BD0064024000B589B08D
:1003500040F6164004F034FC02211B4802F0A8F8D5
:10036000012005900020069018480290002003907C
:100370004FF4805007901648009001200190002013
:1003800004904FF4403008906A4602210E4802F073
:1003900093FB042202210C4802F077F802210A485C
:1003A00002F063F810220221074802F038F9012216
:1003B00002213A2004F06CF840210548001F06F0A5
:1003C00011FA09B000BD000000640240D80C002002
:1003D00004100140704700BFFEE7000010B540F672
:1003E000044004F0EDFB40F6034004F0E9FB40F666
:1003F000064004F0E5FB4FF4406004F0E1FB082305
:1004000000220121164803F063FE8023002201210F
:10041000144803F05DFE082300220121124803F076
:1004200057FE202300220121104803F051FE08232B
:10043000022200210A4803F072FE802302220021DA
:10044000084803F06CFE082302220021064803F04E
:1004500066FE202302220021044803F060FE10BD46
:1004600000100240000C0240001802400000024050
:1004700000BFFEE77047000010B5002807DA0A0742
:10048000140E054A00F00F031B1FD45403E00A07A3
:10049000130E024A135410BD18ED00E000E400E012
:1004A00070B500240CE0002506E00020074901EBB0
:1004B000C5010855681CC5B2802DF6DB601CC4B2AE
:1004C000082CF0DB00F064F970BD00003808002053
:1004D000F0B514460B46CF1701EB5777C7F3C702A9
:1004E000CF1701EB5777FF10A1EBC707FEB201232F
:1004F000B340DDB24CB1134B03EBC0039B5C2B4309
:10050000104F07EBC007BB541AE00E4B03EBC003C0
:100510009B5CDB430B4F07EBC007BB54094B03EB62
:10052000C0039B5C2B43074F07EBC007BB54054B35
:1005300003EBC0039B5CDB43024F07EBC007BB54DC
:10054000F0BD00003808002000B587B01C216846C7
:10055000FFF782FE40F6014004F032FB40F6014016
:1005600004F02EFB40F6014004F02AFB40F6024066
:1005700004F026FB40F6034004F022FB4023012256
:1005800011467F4803F0A4FD4023022200217C484D
:1005900003F0C5FD01224021794803F059FD0123F4
:1005A0001A461946774803F093FD012302220021E1
:1005B000744803F0B4FD01221146724803F048FD6F
:1005C0004FF48053002201216F4803F081FD4FF466
:1005D0008053022200216C4803F0A1FD0122110387
:1005E000694803F035FD4FF400520521664803F0D9
:1005F000FEFC4FF4005300220221634803F068FD23
:100600004FF40053022200215F4803F088FD4FF4AD
:1006100000515D4803F01AFD4FF4004205215A488D
:1006200003F0E5FC4FF4004300220221564803F09A
:100630004FFD4FF4004302220021534803F06FFDA9
:100640004FF40041504803F001FD41F20E0004F068
:10065000B7FA002001904FF48270009000200290C1
:10066000032005904FF40070039000200690049042
:100670006946464805F021FE444805F00BFE00227D
:100680000121404803F0E4FCC82001F043FA0122B4
:1006900011463C4803F0DCFC0021AE2000F0E2F9FA
:1006A0000021084600F0DEF90021102000F0DAF900
:1006B0000021402000F0D6F90021812000F0D2F97D
:1006C0000021CF2000F0CEF90021A12000F0CAF9CE
:1006D0000021C82000F0C6F90021A62000F0C2F9D0
:1006E0000021A82000F0BEF900213F2000F0BAF957
:1006F0000021D32000F0B6F90021084600F0B2F93D
:100700000021D52000F0AEF90021802000F0AAF9E8
:100710000021D92000F0A6F90021F12000F0A2F973
:100720000021DA2000F09EF90021122000F09AF951
:100730000021DB2000F096F90021402000F092F922
:100740000021202000F08EF90021022000F08AF91B
:1007500000218D2000F086F90021142000F082F99C
:100760000021A42000F07EF90021A62000F07AF9F3
:10077000FFF796FE0021AF2000F074F907B000BD2E
:1007800000080240000C0240000402400038004013
:1007900070B500241CE004F1B001C8B2002100F0E3
:1007A00061F90021084600F05DF90021102000F0F9
:1007B00059F9002508E0084901EBC501085D012150
:1007C00000F050F9681CC5B2802DF4DB601CC4B287
:1007D000082CE0DB70BD00003808002008B580461A
:1007E00089469246002600274BE04FB91023324637
:1007F00018218020CDF800A000F046F8701CC6B289
:10080000464522D14FF0000B1AE0012410E00025EC
:100810000AE01C4800EBC400415D601E194A02EB6F
:10082000C0004155681CC5B2082DF2DB601CC4B283
:10083000902CECDBFFF7ACFF0BF1010000F0FF0B9D
:100840004FEA09105845E0DC0026781CC7B2102F8B
:1008500000D10027012410E000250AE0094800EB40
:10086000C400415D601E074A02EBC0004155681C90
:10087000C5B2082DF2DB601CC4B2902CECDBFFF794
:1008800087FFB2E7380800202DE9FC4F074688466D
:1008900016461C46BB46CDF804802046E21704EB02
:1008A0005272D2102146E31704EB5373DB10A4EB12
:1008B000C3030BB1012300E000231A44624392B248
:1008C0000092002555E0102C05D12C4800EB461075
:1008D00010F805A01BE0182C07D106EBC60028492C
:1008E00001EBC00010F805A011E0202C05D125482F
:1008F00000EBC61010F805A009E0402C05D12248F5
:1009000000EB462010F805A001E0BDE8FC8F4FF099
:1009100000091CE00AF0010028B1414638460B9A54
:10092000FFF7D6FD09E00B9808B9012000E0002090
:10093000024641463846FFF7CBFD4FEA6A0A08F106
:10094000010000F0FF0809F1010000F0FF09B9F112
:10095000080FDFDB781CC7B2A7EB0B00A04204D165
:100960005F4601980830C0B20190DDF80480681C31
:1009700085B200988542A6DB00BFC6E77E830008EB
:10098000DE84000826850008A68500082DE9FF4FB3
:1009900005460E4617461C46DDF838904FF0000A13
:1009A0000095B3462046E21704EB5272D21021465E
:1009B000E31704EB5373DB10A4EBC3030BB1012368
:1009C00000E000231A44D4B24FF0000845E00020B4
:1009D00003903BE00D9810F80A0002900AF1010024
:1009E0001FFA80FA002001901DE0029800F001003B
:1009F00028B14A4631462846FFF76AFD0AE0B9F1B8
:100A0000000F01D1012000E00020024631462846B7
:100A1000FFF75EFD029840100290701CC6B201986C
:100A2000401CC0B2019001980828DEDB681CC5B2EA
:100A30000098281AB84204D1009D0BF1080000F07C
:100A4000FF0B5E460398401CC0B203900398B84267
:100A5000C0DB08F1010000F0FF08A045B7DBBDE8EE
:100A6000FF8F000070B504460D462DB101224021D4
:100A7000174803F0EDFA04E000224021144803F087
:100A8000E7FA00224FF48051124803F0E1FA00BF68
:100A90000221114805F009FC0028F9D021460E4832
:100AA00005F001FC00BF01210B4805F0FEFB00280A
:100AB000F9D0094805F0F3FB01221103054803F0C2
:100AC000C7FA01224021024803F0C2FA70BD0000BB
:100AD00000080240000402400038004070477047A0
:100AE00010B501F021F810BD08B53048006840F499
:100AF00070002E4908602E48006840F001002C4923
:100B0000086000BF2A48006800F002000028F9D001
:100B100000BF27480830006840F0800024490831B1
:100B200008600020009002E00098401C00900098AF
:100B30005028F9D31E480830006840F090001C4946
:100B4000083108600020009002E00098401C0090EE
:100B500000985028F9D300BF15480830006820F0ED
:100B60000300134908310860114800681149084022
:100B70000F4908600846006820F4802008600020C3
:100B80000B490831086000BF0948083000680020A0
:100B90000028F9D108480649091D086000200449C9
:100BA0000C31086005F0E0FC08BD000088ED00E0B5
:100BB00000380240FFFFF6FE1030002410B504217B
:100BC0000F4805F01CFE012818D10D4805F092FDD4
:100BD00002210C4802F076F8C0F580500A490880DE
:100BE0000221084801F031FCFFF7B0FB0020074963
:100BF000054A1288885401200549087010BD00007C
:100C0000001001400064024028000020D80C0020A1
:100C10002A00002010B54FF4406003F0D1FF41F2EC
:100C2000041003F0CDFF4FF400720721244803F0B5
:100C3000DEF94FF480620721214803F0D8F94FF420
:100C40000073012202211E4803F042FA4FF40073A0
:100C5000022200211A4803F062FA4FF48063012255
:100C60000221174803F034FA4FF480630222002176
:100C7000134803F054FA134805F046FD4FF4E131F0
:100C8000104805F0C3FC04210E4805F0D4FD0821EE
:100C90000C4805F0D8FD04210A4805F0CCFD0948B0
:100CA00005F0A8FD02221146252003F0F1FB4FF4C8
:100CB0004171044805F0B2FD03A000F013F810BD27
:100CC0000000024000100140555341525430204F63
:100CD00050454E2053554343455353200A000000CE
:100CE00000BFFEE70FB4054B10B503A9044A0298F4
:100CF00000F018F810BC5DF814FB00001D3D000862
:100D00003408002002E008C8121F08C1002AFAD1E6
:100D100070477047002001E001C1121F002AFBD17B
:100D2000704700002DE9FF4F8DB09B460F460446EB
:100D3000002606E025280BD05A460F999047641CE0
:100D4000761C20780028F5D111B03046BDE8F08F30
:100D50000025A8460122984900E0054314F8013F08
:100D6000203B02FA03F00842F7D120782E2817D151
:100D700014F8010F45F004052A280ED06FF02F0259
:100D80002078A0F1300109290AD808EB880102EB8C
:100D9000410100EB0108641CF2E757F8048B641C66
:100DA00020786C280DD004DC4C2812D06A2811D190
:100DB00004E074280DD07A280CD10AE045F400151F
:100DC00007E0617845F48015814202D1641C05F585
:100DD0008015641C2078692844D008DC0028B3D032
:100DE000582867D063280FD0642808D13AE07028CB
:100DF00065D0732812D075285AD078285AD05A4610
:100E00000F999047761CD5E017F8040B8DF8000079
:100E100000208DF80100E946012003E057F8049B0B
:100E20004FF0FF3069074FF0000501D40AE06D1C58
:100E300045450DDA8542FADB19F805100029F6D18F
:100E400006E06D1C8542FCDB19F805100029F8D17D
:100E50002E4404E019F8010B5A460F9990476D1E75
:100E6000F8D2A7E00A200021CDE90801C5F302501D
:100E700002280CD001CFC117021E71F100020CDA5A
:100E80000023D0EB030063EB01012D2208E0FF1DDE
:100E900027F00707F7E80201EEE72A0504D52B2221
:100EA0008DF8282001223CE0EA073AD02022F7E71B
:100EB0000A2000E010200021CDE9080107E0102001
:100EC000002145F00405CDE908014FF00808C5F3FD
:100ED0000250022810D001CF00214FF0000A2A074B
:100EE00020D52278702A0DD0DDE908C38CF0100CD3
:100EF0005CEA030C0CD015E0FF1D27F00707F7E8AC
:100F00000201EAE740228DF828204FF0010A0CE0A8
:100F100050EA010306D030238DF828308DF82920BF
:100F2000022292462278582A04D024A20DF12009E8
:100F30000B9209E026A2F9E7DDE90823FFF754F94F
:100F40000B9B9B5C09F8013D50EA0102F4D1ADEB2B
:100F5000090020300890680701D44FF00108089973
:100F6000884503DD0898A8EB000000E000208046DB
:100F7000002506E00AA85A46405D0F9990476D1C6F
:100F8000761C5545F6DB04E030205A460F99904711
:100F9000761CB8F10001A8F10108F5DC05E019F8AC
:100FA000010B5A460F999047761C0899481E0890E5
:100FB0000029F4DC641CC4E6092801003031323316
:100FC0003435363738396162636465660000000085
:100FD000303132333435363738394142434445466F
:100FE000000000002DE9F05F4CA0FFF77BFE5148A8
:100FF0004068C0F303664F488088C0F3C0394D484D
:101000008088C0F3802A022E11D1B9F1010F0AD1D4
:10101000BAF1010F03D148A0FFF764FE11E04DA023
:10102000FFF760FE0DE052A0FFF75CFE09E0012E25
:1010300003D156A0FFF756FE03E016B95AA0FFF7FA
:1010400051FE3C484068C0F30255022D03D15DA01B
:10105000FFF748FE0AE0032D03D15FA0FFF742FE31
:1010600004E0042D02D161A0FFF73CFE6448006A51
:10107000401C87024FF4007804F0E2F98346594699
:1010800060A0FFF72FFE414665A0FFF72BFE394613
:101090006AA0FFF727FE5A48C07E10B16EA0FFF786
:1010A00021FE574890F82F0010B175A0FFF71AFEE7
:1010B0005348048B21467DA0FFF714FE04F0040082
:1010C00028B104F0100010B181A0FFF70BFE04F06E
:1010D000200010B187A0FFF705FE04F0400010B11A
:1010E0008AA0FFF7FFFD04F0800010B190A0FFF789
:1010F000F9FD04F4807010B195A0FFF7F3FD04F43E
:10110000007010B19CA0FFF7EDFD04F4806010B1F9
:10111000A0A0FFF7E7FDBDE8F09F00000D0A204307
:1011200061726420696E666F726D6174696F6E3A88
:1011300000000000040000200D0A232320436172F8
:10114000642076657273696F6E20342E7878202360
:10115000230000000D0A232320436172642076657A
:101160007273696F6E20332E3078202323000000C5
:101170000D0A232320436172642076657273696FC0
:101180006E20322E30302023230000000D0A23234E
:1011900020436172642076657273696F6E20312E10
:1011A00031302023230000000D0A232320436172E5
:1011B000642076657273696F6E20312E307820233B
:1011C000230000000D0A232320534453432063616E
:1011D00072642023230000000D0A23232053444877
:1011E0004320636172642023230000000D0A23233F
:1011F000205344584320636172642023230000007D
:10120000141F00200D0A232320446576696365209E
:1012100073697A652069732025644B42202323007B
:101220000D0A232320426C6F636B2073697A65205B
:101230006973202564422023230000000D0A232324
:1012400020426C6F636B20636F756E74206973202E
:1012500025642023230000000D0A232320506172FF
:101260007469616C20626C6F636B7320666F7220AF
:101270007265616420616C6C6F7765642023230064
:101280000D0A2323205061727469616C20626C6FB7
:10129000636B7320666F7220777269746520616C6E
:1012A0006C6F776564202323000000000D0A232360
:1012B0002043617264436F6D6D616E64436C617352
:1012C0007365732069733A2025782023230000007A
:1012D0000D0A232320426C6F636B206F706572616F
:1012E00074696F6E20737570706F727465642023FB
:1012F000230000000D0A23232045726173652073CB
:101300007570706F72746564202323000D0A2323A7
:101310002057726974652070726F74656374696FA9
:101320006E20737570706F727465642023230000E3
:101330000D0A2323204C6F636B20756E6C6F636BFB
:1013400020737570706F7274656420232300000031
:101350000D0A2323204170706C69636174696F6E9C
:1013600020737065636966696320737570706F724E
:1013700074656420232300000D0A232320492F4F86
:10138000206D6F646520737570706F727465642072
:10139000232300000D0A23232053776974636820F8
:1013A00066756E6374696F6E20737570706F72749A
:1013B00065642023230000002DE9F04704460D4614
:1013C00090469946AD1E606B00EB153AC5F3C80612
:1013D00005F0070101208840C7B200BF51460AF15D
:1013E000010A204603F03AF810B10120BDE8F08769
:1013F00000BF00BF04F13C00805D384008B101200F
:1014000000E00020484501D10220EFE704F13C0054
:10141000805D784004F13C0188550120E070A8F11E
:101420000100B0F1000800D1E0E77806000E071EC9
:10143000E0D10127701C0646B0F5007FD9D3002605
:10144000CCE7000070B504460D460020E070401E59
:10145000A0632946204603F001F808B1042070BDBE
:1014600004F23A2002F0E5FE4AF65521884201D006
:101470000320F4E70B2214A104F13C0002F0C6FFA4
:1014800008B90120EBE794F83C00E92807D094F86C
:101490003C00EB2803D094F83C00E82811D103224B
:1014A0000CA104F1720002F0B1FF08B90020D6E7E8
:1014B000052209A104F18E0002F0A8FF08B900205E
:1014C000CDE70220CBE70000EB769045584641542B
:1014D0002020200046415400464154333200000091
:1014E000024600E0521C107810B110788842F9D101
:1014F000107870470246891ED069801E884201D844
:10150000002070475389106B03FB0100F9E70000CE
:1015100038B51D240B48009002E00098401E009052
:10152000802004F063FE10B900980028F5D10098DF
:1015300010B91324204638BD034804F051FE20465C
:10154000F9E70000A0860100FF07C0002DE9F04781
:1015500080460C4604F11A0002F06BFE10B1002028
:10156000BDE8F087207800F03F00401E00EB8001CE
:1015700001EBC0054FF00109002621E01849895D03
:10158000081902F056FE0746B9F1000F11D0FF2DE1
:101590000BD2384602F00AF8824629466D1C38F80C
:1015A000110002F003F8824501D00020D8E7B946C7
:1015B00005E04FF6FF70874201D00020D0E7761C8F
:1015C0000D2EDBD3207800F0400038B1B9F1000FC8
:1015D00004D038F8150008B10020C1E70120BFE7AA
:1015E000A68700082DE9F04706468A463468BAF116
:1015F000000F0AD1D4F81480B8F1000F02D0E069CE
:10160000404516D84FF0010813E05146304602F02D
:10161000FDFB0746022F02D20120BDE8F087781CAF
:1016200008B93846F9E7E069B84201D93846F4E725
:10163000D046A06908B90020EFE7207804284ED1F1
:1016400001224146204602F046F805460DB1681CCD
:1016500008B92846E1E701231A4629462046FFF744
:10166000ABFE8146B9F1020F01D10120D5E7B9F1F6
:10167000010F02D14FF0FF30CFE7BAF1000F02D1D6
:101680000220F0710CE0F079022809D108F1010084
:10169000854205D0B068A8EB0000B0610320F0716E
:1016A000F079022869D00AF10100854207D1F0697A
:1016B00010B1F069401C00E00220F0615DE0F069CB
:1016C00008B90120F0612A465146304601F0E1FF99
:1016D0008146B9F1000F50D10120F0614DE00025A5
:1016E000D04519D108F10105E069A84200D80225CA
:1016F0002946304602F08AFB0746012F01D0781CAC
:1017000008B9384689E73FB16769022F03D3E0691A
:10171000B84200D9B8460025E5B9454600BF6D1C62
:10172000E069A84204D80225454501D9002074E7A4
:101730002946304602F06AFB074607B909E0012F47
:1017400001D0781C08B9384667E74545E7D1002045
:1017500063E700BF4FF0FF322946204602F048FF02
:101760008146B9F1000F08D1BAF1000F05D02A4621
:101770005146204602F03CFF8146B9F1000F0DD1E1
:101780006561D4E90610801E814202D8A069401E1E
:10179000A061207940F00100207107E0B9F1010F4C
:1017A00002D14FF0FF3000E001200546284634E723
:1017B0002DE9F34F85B08146069800680290D9F86C
:1017C0000000D0F80CA0002500BF02A804F0F8FE2D
:1017D00083460BF1010018B9062007B0BDE8F08F71
:1017E000BBF5803F05D34FEA1B4228466D1C2AF803
:1017F00010201FFA8BF4202C03DB2F2C01D05C2C43
:1018000000D111E0802C06DA214679A0FFF768FEAE
:1018100008B10620E1E7FF2D01D30620DDE72846C9
:101820006D1C2AF81040D0E700BF02E00298401C6F
:101830000290029800782F28F8D0029800785C284F
:10184000F4D0029906980160202C01DA042000E00F
:101850000020064608E0681E3AF81040202C02D00E
:101860002E2C00D002E06D1E002DF4D100BF002010
:101870002AF815000DB90620AFE7002700E07F1C0D
:101880003AF817002028FAD01FB93AF817002E2886
:1018900001D146F0030600E06D1E25B1681E3AF83E
:1018A00010002E28F8D10B22202109F1400002F06F
:1018B000CCFD4FF00008CDF810800820039000BF49
:1018C00038467F1C3AF8104004B966E0202C03D05B
:1018D0002E2C04D1AF4202D046F00306F0E7DDE93A
:1018E0000310884201D2AF4216D103980B2802D1CF
:1018F00046F0030651E0AF4201D046F00306AF4286
:1019000000D94AE02F46082004900B2003904FEAAC
:1019100088604FEA1068D3E7802C0ADB46F00206A5
:10192000204601F043FE4FF46971019001F004FE7E
:101930000446FF2C11DD0398401E0499884204D808
:1019400046F0030603980490BAE722120498411C5B
:10195000049109F140010A5418E024B1214627A05E
:10196000FFF7BEFD18B15F2446F003060EE0412CE0
:1019700003DB5A2C01DC48F00208612C06DB7A2CD0
:1019800004DC48F00108A4F1200084B20498411C52
:10199000049109F140010C5492E700BF99F840000E
:1019A000E52802D1052089F840000398082803D1D2
:1019B0004FEA88604FEA106808F00C000C2803D04A
:1019C00008F00300032801D146F0020606F00200E9
:1019D00048B908F0010008B146F0100608F004000C
:1019E00008B146F008064B2000F809600020F4E634
:1019F000222A3A3C3E3F7C7F000000002B2C3B3DDE
:101A00005B5D00002DE9F04704460E4640220021B0
:101A1000204602F01AFD85202070C02084F82000A6
:101A200040250020804607464FF0010900BFC12233
:101A300028466D1C2254002228466D1C225400BFEB
:101A4000B9F1000F06D036F81700B0F1000901D047
:101A5000781CC7B26019494604F094FCAD1C05F02F
:101A60001F000028ECD108F1010000F0FF0836F853
:101A700017000028DBD184F8237008F101006070A2
:101A8000304604F062FF8246514604F1240004F01F
:101A900079FCBDE8F087000001460B4800788842D9
:101AA0000FDC09484078884201DB01207047064876
:101AB0008078884205DC0448C078884201DB012038
:101AC000F4E70020F2E70000B38700080146104861
:101AD0000079884219DC0E484079884201DB0120F8
:101AE00070470B488079884205DC0948C0798842F4
:101AF00001DB0120F4E70648007A884205DC04484F
:101B0000407A884201DB0120EAE70020E8E7000094
:101B1000B38700080349086000BF0249096800292B
:101B2000FBD170472C0800200448006820B103480E
:101B30000068401E01490860704700002C08002022
:101B40002DE9F04104460E46D4F8008000212046DD
:101B500000F036FB05465DBB002700BF4046A16B89
:101B600002F07CFC054605B121E098F8000004284D
:101B700005D1E06B0078012121EAD01009E0E06B8B
:101B80000078E52802D0E06B007808B9012000E079
:101B9000002020B1781C0746B04201D107E00027A1
:101BA0000121204600F00EF90546002DD6D000BFD9
:101BB000042D00D107252846BDE8F0812DE9F04726
:101BC00004468946204604F02CFC10B10120BDE8F3
:101BD000F08749462046FFF78DFC0646A6634FF482
:101BE0000072002104F13C0002F02FFC04F13C08DB
:101BF0000127002500E03D446089A84207D97219F9
:101C000060783B46414600F0F9FB0028F3D060893C
:101C1000A84201D00120DAE70020D8E72DE9F04FF3
:101C200085B0044625680021204600F0C9FA074621
:101C30001FB1384605B0BDE8F08F287804284CD194
:101C4000E86804F082FE01903EE0296901F1240079
:101C500002F0EFFA0199884200D035E0286990F847
:101C6000230003904FF0400A002002901FE00AF08A
:101C70001F0008B90AF1020A296901EB0A0002F003
:101C8000D8FA009001F092FC8346EA68029932F893
:101C9000110001F08BFC834500D00BE00398401E3F
:101CA000C0B203900AF1020A0298401C0290039805
:101CB0000028DCD100BF039828B9E968029831F800
:101CC000100000B906E000BF0021204600F0EAF84D
:101CD000071EBAD000BF3846ACE74FF0FF09CDF879
:101CE00010904FF0FF30E06400BF2846A16B02F077
:101CF000B5FB074607B162E0E06B06780EB9042732
:101D00005DE0E06BC07A00F03F0884F80680E52EC5
:101D100005D008F0080040B1B8F10F0F05D04FF022
:101D2000FF094FF0FF30E06442E0B8F10F0F22D11D
:101D30004B20005D00F04000A0BB06F0400038B131
:101D4000E06B407B049006F0BF06B146206BE06478
:101D50004E450CD1E06B417B0498814207D1E16B89
:101D6000E868FFF7F3FB10B1A9F1010000E0FF20E4
:101D700000F0FF091CE0B9F1000F06D1E06B04F0A0
:101D800040FB0499884200D119E04B20005D00F02F
:101D9000010040B90B2204F14001E06B02F036FB78
:101DA00008B90CE004E04FF0FF094FF0FF30E064A9
:101DB0000021204600F006F80746002F95D000BF0E
:101DC000384637E72DE9F041044688462768206BFE
:101DD00000F120063878042801D1800601E04FF494
:101DE0000010B04201D80020A063A06B10B90420FD
:101DF000BDE8F081C6F3080000284AD1A06B401C62
:101E0000A063606B38B93889B0EB561F41D8002009
:101E1000A0630420ECE77889401E00EA56200028E1
:101E200037D12046616B01F0F1FF0546012D01D845
:101E30000220DDE7681C08B90120D9E7F869A8424B
:101E400021D8B8F1000F03D10020A0630420CFE710
:101E50002046616BFFF7C6FB05460DB90720C7E7B3
:101E6000012D01D10220C3E7681C08B90120BFE79A
:101E700029463846FFF7A2FE08B10120B8E7E0790D
:101E800040F00400E071656329463846FFF732FBF5
:101E9000A0632663C6F3080107F13C000844E06331
:101EA0000020A5E72DE9F05F04468A46042627684E
:101EB0004FF0FF09CB4667E03846A16B02F0CEFA3F
:101EC000064606B163E0E06B05780DB904265EE0D6
:101ED000387804280FD100BF852D4ED1206BE064E7
:101EE000204602F0CCF9064626B93869007900F0A0
:101EF0003F00A0714BE0E06BC07A00F03F0884F82F
:101F00000680E52D0AD02E2D08D028F020000828C4
:101F100001D1012000E00020504502D04FF0FF0920
:101F20002BE0B8F10F0F1CD105F0400038B1E06B89
:101F300090F80DB005F0BF05A946206BE0644D4553
:101F40000BD1E06B407B584507D1E16BF86802F09C
:101F50000BFB10B1A9F1010000E0FF2000F0FF0928
:101F60000BE0B9F1000F04D1E06B04F04AFA5845D8
:101F700002D04FF0FF30E06409E000212046FFF777
:101F800021FF064606B102E0A06B002894D100BFF5
:101F90000EB10020A0633046BDE8F09F2DE9F04F60
:101FA00099B0044626684B20005D00F0A00018B1EF
:101FB000062019B0BDE8F08F4FF0000B01E00BF1E7
:101FC000010BF06830F81B000028F8D130780428A5
:101FD00066D10BF10E000F21B0FBF1F000F1020908
:101FE00049462046FFF7ACFD05460DB12846E0E71F
:101FF000A9F101002022216B02FB1010E064E079BE
:1020000000F00400002845D0E07920F00400E071E1
:10201000204601F023FB05460DB12846C9E74FF0E5
:10202000FF322046616B01F034FB05460DB12846B6
:10203000BFE7A06870B32146684602F000F9054684
:102040000DB12846B5E770894002D4E9043118186B
:1020500041F10001C4E90401D4E90473316901F1DB
:1020600038003A4604F060F9D4E90473316901F1AB
:1020700028003A4604F058F9E07940F0010031694F
:1020800081F82100684604F083F905460DB1284621
:102090008FE700BFD6E90310FFF7B4FC002088E704
:1020A0000C2204F1400115A802F0C2F99DF85F006E
:1020B00000F0010028B340214B2001554FF0010AE8
:1020C0000EE0534615A904F14000F26801F038FE15
:1020D0002046FFF7A3FD054605B104E00AF1010A19
:1020E000BAF1640FEDD300BFBAF1640F01D107203C
:1020F0005FE7042D01D028465BE79DF85F104B2079
:1021000001559DF85F0000F0020030B10BF10C00AA
:102110000D21B0FBF1F0401C00E001208146494652
:102120002046FFF70DFD054675BBA9F10100B0F192
:10213000000929D0206BA0EB4911204600F040F89F
:1021400005460DBB04F1400004F05BF9149000BF9C
:102150003046A16B02F082F9054605B113E009F0A3
:10216000FF02E16BF068149B02F0E4FA0120F070CA
:1021700000212046FFF726FE054625B9A9F10100FA
:10218000B0F10009E4D100BFC5B93046A16B02F03F
:1021900065F9054695B920220021E06B02F055F95A
:1021A0000B2204F14001E06B02F042F94B20005D8C
:1021B00000F01800E16B08730120F0702846F8E683
:1021C0002DE9F04104460D4626683078042801D1F7
:1021D000800601E04FF40010A84202D905F01F006C
:1021E00010B10220BDE8F0812563A7682FB93078CF
:1021F000032802DBF76A0020E07147B93089B0EBB1
:10220000551F01D80220EDE7F06AA0631CE0708939
:102210004FEA402811E03946204601F0F7FD074615
:10222000781C08B90120DDE7022F02D3F069B8421B
:1022300001D80220D6E7A5EB08054545EBD2394683
:102240003046FFF757F9A0636763A06B08B9022017
:10225000C8E7A06B00EB5520A063C5F3080106F1A9
:102260003C000844E0630020BCE7000038B50546A8
:10227000012400200090002D48D127A0FEF732FD58
:1022800003F024FC04461D2C07D1274803F02CF949
:10229000044626A0FEF726FD01E0012038BD1D2CD6
:1022A00009D12149B1F8440003F00CFB044626A0F3
:1022B000FEF718FD01E00120F0E7684603F072FB2D
:1022C0000446009800F0007008B100BFFEE71D2C26
:1022D00008D14FF4006002F0EBFF044621A0FEF7A6
:1022E00001FD01E00120D9E71D2C07D1012003F0F9
:1022F000A3FE044621A0FEF7F5FC01E00120CDE796
:102300001D2C01D10020C9E70120C7E7012400BF2F
:1023100000BF2046C2E7000053445F496E69742E37
:102320002E2E0D0A00000000141F002073645F634E
:102330006172645F696E666F726D6174696F6E5F02
:102340006765740D0A00000073645F636172645F07
:1023500073656C6563745F646573656C6563740D48
:102360000A00000073645F6275735F6D6F64655F80
:10237000636F6E6669670D0A0000000053445F508A
:102380004F4C4C494E475F4D4F44450D0A000000ED
:102390002DE9F04107460C4615461E464FF01C0835
:1023A00014B90420BDE8F0810EB90420FAE7BFB9E2
:1023B000012E06D169027202204602F0DDFC804641
:1023C00007E0690233464FF40072204603F0A2FB97
:1023D0008046B8F11D0F01D10020E3E70120E1E7BD
:1023E0000420DFE70146012011B1012904D101E0F9
:1023F000002001E0012000BF00BF70472DE9F0413F
:1024000006460F4614461D464FF01C0815B9042019
:10241000BDE8F081BEB9012D06D161026A023846DD
:1024200002F0B6FD804607E061022B464FF40072D1
:10243000384603F06FFB8046B8F11D0F01D1002034
:10244000E6E70120E4E70420E2E710B501EB4102F2
:10245000D30000F11002D25822F0010301EB410237
:10246000D40000F11002135110BD10B501EB410270
:10247000D30000F11002D25842F0010301EB4102F7
:10248000D40000F11002135110BD30B5134601EB1A
:102490004104E50000F11004625922F0606242EA52
:1024A000436201EB4104E50000F11004625130BDCC
:1024B00010B501EB4102D30000F11002D25822F016
:1024C000010301EB4102D40000F11002135100237B
:1024D00001EB4102D40000F11002135101EB410263
:1024E000D40000F11402135101EB4102D40000F1B9
:1024F0001802135101EB4102D40000F11C021351E8
:1025000001EB4102D40000F12002135101EB410222
:10251000D40000F12402135104290CDA01EB41022A
:102520005300C1F3400203EB82033D229A408368CB
:102530001A4382600DE00A1FD1B201EB4102530041
:10254000C1F3400203EB82033D229A40C3681A4361
:10255000C26010BD10B504290CDA01EB41035C0028
:10256000C1F3400304EB830302FA03F384682343BB
:1025700083600DE00B1FD9B201EB41035C00C1F396
:10258000400304EB830302FA03F3C4682343C360EC
:1025900010BD10B5034604290FDA01EB41004400D9
:1025A000C1F3400004EB800402FA04F01C682040F0
:1025B00008B1012010BD0020FCE7081FC1B201EBEB
:1025C00041004400C1F3400004EB800402FA04F02F
:1025D0005C68204008B10120ECE70020EAE730B554
:1025E00072B901EB4103DC0000F110031B5923F029
:1025F000200401EB4103DD0000F110035C510DE00C
:1026000001EB4103DC0000F110031B5943F02004EF
:1026100001EB4103DD0000F110035C5130BD30B52A
:10262000802A0DD001EB4103DC0000F110031B599F
:10263000134301EB4104E50000F1100463510CE089
:1026400001EB4103DC0000F124031B59134301EBB0
:102650004104E50000F12404635130BD10B50429A4
:102660000CDA01EB41035C00C1F3400304EB83038C
:1026700002FA03F38468234383600DE00B1FD9B291
:1026800001EB41035C00C1F3400304EB830302FA56
:1026900003F3C4682343C36010BDF0B503460025AF
:1026A00000260C46042979DA082A34D004DC012AF1
:1026B00007D0042A70D119E0102A41D0202A6BD10A
:1026C00053E001EB41004700C1F3400007EB8007F6
:1026D00002FA07F01F6800EA070601EB4100C70095
:1026E00003F12400C05900F0800556E001EB4100E1
:1026F0004700C1F3400007EB800702FA07F01F68AC
:1027000000EA070601EB4100C70003F11000C059C1
:1027100000F0020541E001EB41004700C1F3400039
:1027200007EB800702FA07F01F6800EA070601EBD3
:102730004100C70003F11000C05900F004052CE06F
:1027400001EB41004700C1F3400007EB800702FAAC
:1027500007F01F6800EA070601EB4100C70003F11C
:102760001000C05900F0080517E001EB41004700D8
:10277000C1F3400007EB800702FA07F01F6800EA88
:10278000070601EB4100C70003F11000C05900F03B
:10279000100502E002E0FFE700BF7AE0201FC4B2AC
:1027A000082A34D004DC012A07D0042A6FD119E0AA
:1027B000102A41D0202A6AD153E004EB440047009C
:1027C000C4F3400007EB800702FA07F05F6800EAF5
:1027D000070601EB4100C70003F12400C05900F0D7
:1027E000800555E004EB44004700C4F3400007EBCC
:1027F000800702FA07F05F6800EA070601EB410074
:10280000C70003F11000C05900F0020540E004EBDE
:1028100044004700C4F3400007EB800702FA07F0CA
:102820005F6800EA070601EB4100C70003F11000F2
:10283000C05900F004052BE004EB44004700C4F34A
:10284000400007EB800702FA07F05F6800EA07061E
:1028500001EB4100C70003F11000C05900F008056A
:1028600016E004EB44004700C4F3400007EB800788
:1028700002FA07F05F6800EA070601EB4100C700B3
:1028800003F11000C05900F0100501E0FFE700BFA0
:1028900000BF16B10DB10120F0BD0020FCE7000023
:1028A00070B501EB4104E50000F124046459156A98
:1028B00045F004052C4301EB4105EE0000F1240531
:1028C000AC5101EB4104E60000F118041568A55174
:1028D00001EB4104E60000F11C04D568A55101EBB1
:1028E0004104E60000F11404D56AA55101EB41044E
:1028F000E50000F110046359414C23401569546808
:102900002C43156B2C43956A2C4395692C43D56950
:102910002C43234301EB4104E50000F11004635113
:10292000946874B901EB4104E50000F110046459A6
:1029300044F4007501EB4104E60000F11004A551D8
:102940001FE09468012C0ED101EB4104E50000F179
:102950001004645924F4007501EB4104E60000F111
:102960001004A5510DE001EB4104E50000F1100455
:10297000645944F4004501EB4104E60000F1100401
:10298000A551546974B901EB4104E50000F110044C
:10299000645944F4806501EB4104E60000F1100441
:1029A000A5510DE001EB4104E50000F1100464596C
:1029B00024F4806501EB4104E60000F11004A55108
:1029C000546A74B901EB4104E50000F11004645944
:1029D00044F4807501EB4104E60000F11004A551B8
:1029E0000DE001EB4104E50000F11004645924F40A
:1029F000807501EB4104E60000F11004A55170BDA3
:102A00003F871CFE30B58DB004460D4601220321E0
:102A10002748FFF79FFD042203212548FFF79AFD71
:102A2000082203212248FFF795FD102203212048A8
:102A3000FFF790FD202203211D48FFF78BFD0321A6
:102A40001B48FFF702FD03211948FFF731FD194824
:102A50000090039400200A900B9001200290002027
:102A600005904FF480500190800004904FF4403066
:102A70000C904FF4001007908000069003200890FF
:102A8000012009906A4603210948FFF709FF012246
:102A900003210748FFF7A3FD042203210448FFF7A1
:102AA000F4FC03210248FFF7E0FC0DB030BD00004C
:102AB00000640240802C014070B501EB4104E50048
:102AC00000F12404645924F0040501EB4104E600FC
:102AD00000F12404A55101EB4104E60000F11804C3
:102AE0001568A55101EB4104E60000F11C0495684E
:102AF000A55101EB4104E60000F11404D569A5518C
:102B000001EB4104E50000F1100463593F4C234000
:102B1000146944EA8404156A2C4395692C432343C1
:102B200001EB4104E50000F110046351546874B9ED
:102B300001EB4104E50000F11004645944F4007510
:102B400001EB4104E60000F11004A5511FE05468B8
:102B5000012C0ED101EB4104E50000F11004645991
:102B600024F4007501EB4104E60000F11004A551C6
:102B70000DE001EB4104E50000F11004645944F458
:102B8000004501EB4104E60000F11004A551D468B2
:102B900074B901EB4104E50000F11004645944F4F8
:102BA000806501EB4104E60000F11004A5510DE041
:102BB00001EB4104E50000F11004645924F4806540
:102BC00001EB4104E60000F11004A551546974B909
:102BD00001EB4104E50000F11004645944F48075F0
:102BE00001EB4104E60000F11004A5510DE001EBFA
:102BF0004104E50000F11004645924F4807501EBF0
:102C00004104E60000F11004A55170BD3F87FCFFB0
:102C100030B58DB004460D46012203212748FFF749
:102C200099FC042203212548FFF794FC0822032184
:102C30002248FFF78FFC102203212048FFF78AFC6F
:102C4000202203211D48FFF785FC03211B48FFF7C5
:102C5000FCFB03211948FFF72BFC19480090039453
:102C600040200A9000200B90012002900020059047
:102C70004FF480500190800004904FF440300C904D
:102C80004FF4001007908000069001200990032067
:102C900008906A4603210948FFF702FE012203213A
:102CA0000648FFF79CFC042203210448FFF7EDFBD4
:102CB00003210248FFF7D9FB0DB030BD006402408C
:102CC000802C0140024601EB4100C30002F11400D8
:102CD000C05870472DE9F04F87B0044615461E4690
:102CE00004A9204603F0B7FD0590059810B994F8A3
:102CF00031000590059848B904980078042805D15A
:102D0000421F2046216C00F0C4FC0590059818B1C4
:102D1000059807B0BDE8F08F04980078042806D025
:102D2000291E76F1010002D34FF0FF350026D4E9C9
:102D30000410491BB04106D294F8300000F00200A4
:102D400008B9D4E90456D4E90E01CDE902014FF0E7
:102D5000000BC4F838B0C4F83CB0002185EA01008B
:102D6000714008437ED0049840894FEA40290023EF
:102D7000DDE902015840594008432CD06F1E66F12E
:102D800000014A463846FDF72FFA07468846DDE936
:102D90000210491E60F100004A460023CDE90010F0
:102DA00008460199FDF720FA381A78EB010812D38A
:102DB000DDE902104A1E60F10001A9F1010022EADA
:102DC0000000C4E90E01D4E90E126D1A66EB02068A
:102DD000D4F840A01BE0D4F808A0BAF1000F14D139
:102DE00000212046FEF7FEFB8246BAF1010F03D117
:102DF000022084F831008CE70AF1010018B90120A3
:102E000084F8310085E7C4F808A0C4F840A0BAF1FE
:102E1000000F74D047E0B5EB090566F10006D4E970
:102E20000E2012EB090240F10000C4E90E2094F8D4
:102E3000300000F00200E8B1D4E90470D4E90E21BA
:102E4000BA1A884109D2D4E90E01C4E9040194F800
:102E5000300040F0400084F8300051462046FEF734
:102E6000C1FB00E04BE08246BAF1000F07D100251C
:102E70002E461DE05146204600F0C8FF82460AF16A
:102E8000010018B9012084F8310042E7BAF1010FBE
:102E900003D90498C069504503D8022084F8310052
:102EA00037E7C4F840A00020B9EB0501B041B2D328
:102EB00000BFD4E90E2051197041C4E90E104FF43F
:102EC0000072002328463146FDF78EF900214A4062
:102ED0004B401A4313D051460498FEF70BFB834630
:102EE000BBF1000F03D1022084F8310011E74FF449
:102EF0000072002328463146FDF776F98344D4E971
:102F00000430D4E90E219A1A884109D2D4E90E017D
:102F1000C4E9040194F8300040F0400084F8300027
:102F20004FF400720023D4E90E713846FDF75CF9C6
:102F300000214A404B401A4329D0606C584526D0A6
:102F400094F8300000F0800090B1626C04994878E9
:102F5000012304F15001FFF751FA18B1012084F860
:102F60003100D6E694F8300000F07F0084F830009D
:102F70000499487801235A4604F15001FFF708FAF2
:102F800018B1012084F83100C3E6C4F844B00598B4
:102F9000BFE60000F7B582B016460398019001A87D
:102FA00000F0FEFF0546002D02DA0B2005B0F0BD53
:102FB0000C4850F825400CB100202070029810B148
:102FC0000020029908700749029841F825000EB9BF
:102FD0000020EBE7002202A903A800F0CFFB074680
:102FE0003846E3E75C2F00202DE9F74F98B0044600
:102FF00016461CB909201BB0BDE8F08F06F03F064D
:10300000324603A919A800F0B9FB0546002D7DD171
:103010000398049004A8199900F01EFE05462DB9E6
:103020009DF85B0000F0800000B1062506F01C0052
:1030300000286CD045B1042D03D104A8FEF7AEFFE3
:10304000054646F008060AE09DF8160000F011005B
:1030500008B1072503E006F0040000B10825002DA3
:1030600042D106F0080000283ED0039800780428DA
:103070003BD1039820602146039801F071F8039931
:103080000969881C1E22002101F0DFF903990969F2
:1030900001F126001A22002101F0D7F9202003991E
:1030A0000969087100F07AFF00900399096901F13C
:1030B0000800009903F02CF901200399096981F8AF
:1030C000210004A803F064F90546002D57D1A0683B
:1030D000002854D000222046A16801F0A7FD054633
:1030E000A068401E0399486149E01399039801F0D4
:1030F00050F8834600F052FF0090139901F10E0042
:10310000009903F005F92020139901E0BFE025E0C4
:10311000C87200221399039803F0E8F8139901F19B
:103120001C00002103F0F4F801200399C870BBF1E2
:10313000000F24D00398806B02900022594604A807
:1031400001F074FD0546D5B9DDE9021001F086F9FC
:103150000546ABF101000399486110E07DB99DF887
:10316000160000F0100008B1042508E006F0020087
:1031700028B19DF8160000F0010000B107254DB9F7
:1031800006F0080008B146F040060398806BA06482
:103190001398E064002D7AD10398007804280FD1A9
:1031A00006982062089820F0FF009DF81710084349
:1031B00060621798A0622146039800F0D1FF0CE0EE
:1031C0001399039800F0E5FFA060139901F11C002A
:1031D00000F0F2FF0021C4E9040103982060039885
:1031E000C088A08084F83060002084F831006064DA
:1031F0000021A163E1634FF4007204F1500001F07B
:1032000024F906F02000002856D00023D4E9041049
:103210005940584001434FD0D4E90401C4E90E019C
:10322000039840894FEA4029D4F808A0D4E90478EB
:1032300010E05146204600F0E9FD8246BAF1010F48
:1032400000D802250AF1010000B90125B7EB0907F2
:1032500068F100082DB90020B9EB070170EB0800F8
:10326000E7D3C4F840A095B94FF400720023384664
:103270004146FCF7B9FF00214A404B401A431BD09E
:1032800051460398FEF736F9019008B9022513E07C
:103290004FF40072002338464146FCF7A5FF019920
:1032A00008446064626C03994878012304F150017A
:1032B000FFF76EF800B101250DB10020206028460F
:1032C00099E62DE9FF4F87B004461546089803900C
:1032D00000210A98016005A9204603F0BCFA069077
:1032E000069818B994F83100069018B106980BB0FA
:1032F000BDE8F08F94F8300000F0010008B9072015
:10330000F5E7D4E90E31D4E90420D71A60EB0108BF
:10331000791B78F1000000D23D46D4E0D4E90E01DB
:103320004FF400720023CDE90001FCF75DFF00219E
:103330004A404B401A4370D1D4E90E014FF4007259
:103340000023CDE90001FCF74FFF05994989491E8B
:1033500000EA010ABAF1000F1ED10023D4E90E10D1
:1033600059405840014302D1A068049004E020462F
:10337000216C00F04BFD04900498022803D2022037
:1033800084F83100B3E70498401C18B9012084F890
:103390003100ACE704982064216C0598FEF7AAF888
:1033A0008146B9F1000F03D1022084F831009EE775
:1033B000D1444FEA552BBBF1000F2FD00AEB0B0085
:1033C00005994989884203D905984089A0EB0A0BE1
:1033D000059948785B464A460399FEF7D9FF18B12C
:1033E000012084F8310082E794F8300000F080007A
:1033F00080B1606CA0EB090058450BD2616CA1EB69
:103400000901039A02EB41204FF4007204F15001CC
:1034100001F00EF84FEA4B2645E029E0606C484584
:1034200024D094F8300000F0800090B1626C0599CF
:103430004878012304F15001FEF7E0FF18B10120A4
:1034400084F8310053E794F8300000F07F0084F8EE
:1034500030000599487801234A4604F15001FEF7EF
:1034600097FF18B1012084F8310040E7C4F8449078
:10347000208FC0F30800C0F50076AE4200D92E467A
:10348000D4E90E014FF400720023CDE90001FCF7EE
:10349000ABFE04F1500010443246014602900398FE
:1034A00000F0C6FF00BFAD1B0A98006881190A989A
:1034B0000160039830440390D4E90E20921940F142
:1034C0000000C4E90E20002D7FF428AF00200EE795
:1034D000F0B502460E4600200021802A01DA10468F
:1034E00027E0B6F5697F24D1124B41F6DD47002570
:1034F000102414E0A7EB050C05EB5C014FEA410C2E
:1035000033F81CC0944500D10BE04FEA410C33F86E
:103510001CC0944501DA0D4600E00F46641E002CE5
:10352000E8D100BF2CB14FF0010C0CEB410C33F88B
:103530001C00F0BD52FB00082DE9F04102460F4689
:1035400000200021802A01D290B22BE0B2F5803F0A
:1035500028D2B7F5697F25D195B2134B41F6DD4CE2
:103560000026102414E0ACEB060806EB58014FEAE5
:10357000410833F81880A84500D10BE04FEA410814
:1035800033F81880A84501DA0E4600E08C46641E28
:10359000002CE8D100BF2CB14FF0010808EB410826
:1035A00033F81800BDE8F081DA87000870B5B0F58F
:1035B000803F4DD281B2B1F5805F01DA254E00E047
:1035C000254E324600BF32F8023B0BB1994200DA79
:1035D0003CE032F8024B2512E4B21E198E4230DD77
:1035E000092D2CD2DFE805F005090F13171B1F2347
:1035F0002700CE1A32F8161021E0CE1A06F0010686
:103600008E1BB1B21BE0A1F11006B1B217E0A1F11F
:103610002006B1B213E0A1F13006B1B20FE0A1F182
:103620001A06B1B20BE001F10806B1B207E0A1F150
:103630005006B1B203E0A1F5E356B1B200BF00BF3E
:1036400004E0002DBFD102EB4402BCE700BF0846F6
:1036500070BD0000CA6E0108BC7001082DE9F04180
:103660000446E079032812D1A568A7690BE06A1C1B
:103670002946206800F0BCFF064616B13046BDE87A
:10368000F0816D1C7F1E002FF1D10020E071002021
:10369000F5E72DE9F04104460D46174616E0E369CB
:1036A000012B03D9E369EB1A9B1C00E03B461A4649
:1036B000E369EB1A591C206800F09AFF064616B120
:1036C0003046BDE8F081E069401EE061E069002815
:1036D000E5D100BFF5E72DE9F74F05460E46B61ECA
:1036E000E869801EB04200D800263446A2464FF05A
:1036F000000B00BF686B00EB1431284600F0AEFEF3
:1037000018B14FF0FF30BDE8FE8FC4F3C80904F0D4
:10371000070101208840C7B200BF00BF05F13C008F
:1037200010F8090000EA07087806070E601C044636
:10373000E969891E884203D3002400274FF40079E9
:10374000B8F1000F08D10BF10100834602998842BD
:1037500005D10AF10200D6E7A2464FF0000BB442B1
:1037600001D10020CFE7002FD8D1012709F10100B6
:103770008146B0F5007FD0D3BCE700002DE9F74FBC
:1037800090B0002111980160109800F009FC0E9093
:103790000E98002803DA0B2013B0BDE8F08FF7492C
:1037A0000E9851F820400CB90C20F5E711980460F0
:1037B000129800F0FE001290207878B16078FEF741
:1037C00011FE83460BF0010040B9129820B10BF0B6
:1037D000040008B10A20DFE70020DDE700202070A8
:1037E0000E9860706078FEF741FD83460BF0010093
:1037F00008B10320D0E7129820B10BF0040008B103
:103800000A20C9E7002739462046FDF71BFE064679
:10381000022E01D02EDA2DE0002514E04FF4DF70E7
:1038200000EB051104F13C0008440F900F9800795B
:1038300020B10F98083000F0BFFC00E0002007A97D
:1038400041F825006D1C042DE8D3002505B16D1E3F
:1038500000BF07A850F8257027B139462046FDF76C
:10386000F1FD00E003200646022E03DB681C05463E
:103870000428EED3042E01D101208DE7022E01DBB6
:103880000D2089E7012E70D10B2500E06D1C402D25
:1038900004D204F13C00405D0028F7D0402D01D255
:1038A0000D2079E704F1A40000F0C3FCB0F5807F9F
:1038B00001D00D2070E794F8A81001208840B0F5E1
:1038C000007F01D00D2067E704F1840000F080FC48
:1038D00003460846D91940F10000CDE90410DDE99E
:1038E0000410091E70F1010001D30D2054E704F10A
:1038F000900000F061FC206294F8AA00A070A0780B
:10390000012801D00D2047E794F8A9100120884034
:103910006081608908B90D203EE704F1980000F04D
:103920004BFC80469649884501D90D2034E708F1C3
:103930000200E061676204F1940000F03DFC38444D
:10394000206304F18C0000F037FC3844A0620021B1
:10395000608900FB08F0226B13184941DDE904205F
:10396000D21A884102D20D2016E769E004F19C00CA
:1039700000F022FCE06200200546039000BFB5B9CC
:1039800061890398814201D80D2005E72046E16A4C
:10399000FDF7B0FD0399084401460190204600F070
:1039A0005DFD08B10120F7E60398401C039004F187
:1039B0003C00405D812800D104E005F12000C0F307
:1039C0000805DCE700BF04F13C01294401F11400C3
:1039D00000F0F2FB8146B9F1020F02D3E0694845DD
:1039E00001D80D20D8E66289A9F10200216B02FB03
:1039F0000010606300BFA06A00EBD911204600F000
:103A00002DFD08B10120C7E609F07F0104F13C0259
:103A100002EB810000F0D0FB02900298401C00B93C
:103A200007E009F10100814602998842E3D00D20A8
:103A3000B2E600BF4FF0FF30A06160610426F2E003
:103A400004F1470000F0F5FBB0F5007F01D00D2038
:103A5000A2E604F1520000F0ECFB8246BAF1000F3E
:103A600004D104F1600000F0A7FB8246C4F820A056
:103A70004C20005DA070A078012804D0A078022816
:103A800001D00D2088E6A0780AFB00FA4920005DED
:103A90006081608918B16089411E084008B10D201D
:103AA0007AE604F14D0000F0C4FB2081207A00F09A
:103AB0000F0008B10D206FE604F14F0000F0B9FBD4
:103AC0000D900D9820B904F15C0000F075FB0D908D
:103AD00004F14A0000F0ADFB0690069808B90D20ED
:103AE0005AE606985044218900EB11100C90DDE94C
:103AF0000C01814201D20D204EE6DDE90C10401A86
:103B00006189B0FBF1F8B8F1000F01D10D2043E657
:103B100000261C48804500D803264FF6F5708045E6
:103B200000D8022640F6F570804500D801260EB96F
:103B30000D2031E608F10200E06167620698384422
:103B4000A0620C9838442063032E13D104F1660060
:103B500000F06FFB08B10D201EE6208908B10D2092
:103B60001AE604F1680000F027FBE062E0698000DB
:103B70000B901AE0208938B90D200DE65C2F00204B
:103B8000FDFFFF7FF5FFFF0FA06A5044E062022EA9
:103B900002D1E069400007E0207F00F00100E16908
:103BA00001EB410100EB51000B90216A0B9800F2F0
:103BB000FF10B1EB502F01D20D20EDE54FF0FF309B
:103BC000A061606180202071032E2CD104F16C0073
:103BD00000F02FFB012826D1791C204600F03EFC86
:103BE00008BB0020207104F23A2000F022FB4AF6C4
:103BF0005521884217D104F13C0000F0DDFA11494B
:103C0000884210D104F5087000F0D6FA0E498842B7
:103C100009D104F5097000F0CFFAA06104F50A702B
:103C200000F0CAFA6061267008480088401C80B223
:103C300006490880E0800648E060064820610020D0
:103C4000AAE50000525261417272416130080020C1
:103C5000D0310020702F00202DE9F3410446276861
:103C600002E00198401C0190019800782F28F8D0BC
:103C7000019800785C28F4D00020A060E0610198F1
:103C80000078202808D280214B20015500212046B1
:103C9000FEF796FA05463EE000BF01A92046FDF773
:103CA00087FD054605B135E02046FDF7B7FF05461F
:103CB0004B20065D3DB1042D04D100BF06F0040089
:103CC00000B9052526E006F0040000B122E0A07945
:103CD00000F0100008B905251CE0387804280ED142
:103CE000A0682062206920F0FF00E179084360624B
:103CF000E06CA0622146384600F032FA09E0208EDE
:103D0000C0F3080207F13C001118384600F041FAF0
:103D1000A060C2E700BF2846BDE8FC8170B504463C
:103D20000D46E1B2054802F0EAFC00BF0721034856
:103D300002F065FD0028F9D0204670BD001001405A
:103D40002DE9FF4F83B0804691461E460B22404628
:103D5000049900F06DFB052E18D9374611E039F8AB
:103D600002BB00250BE0584667F35F0007464FEAA9
:103D70006B0B07F4803008B1234847406D1C102DB1
:103D8000F1D3B9F800000028E9D13E46072500BF6D
:103D900006F00F0000F1300ABAF1390F03DD0AF125
:103DA000070000F0FF0A28466D1E01A901F800A0D7
:103DB0003609002EECD17E20485500240AE018F880
:103DC0000400FDF769FE20B1681EA04200D107E0A3
:103DD000641C641CAC4203D218F804002028EED105
:103DE00000BF00BF082D04D228466D1C01A9085C45
:103DF00000E020202146641C08F80100082CF1D3C3
:103E000007B0BDE8F08F0000211001002DE9FC5F34
:103E100006460C463568022C02D3E869A04202D857
:103E20004FF00109B7E04FF0FF392878012806D09C
:103E3000022830D0032841D004287CD152E0274604
:103E400007EB5707A86A00EB5721284600F006FB4E
:103E500000B19FE038467F1CC0F3080105F13C002B
:103E600010F80180A86A00EB5721284600F0F6FA06
:103E700000B18FE0C7F3080105F13C00405C48EA5F
:103E8000002804F0010010B14FEA181001E0C8F357
:103E90000B0081467EE0A86A00EB1421284600F062
:103EA000DDFA00B176E040F2FF1101EA440205F1CB
:103EB0003C01501800F0BDF981466BE0A86A00EBA8
:103EC000D411284600F0CAFA00B163E040F2FF11B5
:103ED00001EA840205F13C01501800F06DF920F070
:103EE000704957E00022D6E9041051405040014388
:103EF00001D0B06808B9F07990BBB068A4EB000AB3
:103F0000D6E90420521E60F10000CDE900204FF4F4
:103F100000720023DDE90001FCF766F96989B0FB56
:103F2000F1FBF07902280AD1DA4508D8DA4503D145
:103F30006FF0004001E02AE0601C81462AE0F07941
:103F4000032805D1B069504502D904F1010921E0E7
:103F5000F079022819D0F06918B16FF0004913E028
:103F600014E0A86A00EBD411284600F077FA00B1FB
:103F700010E040F2FF1101EA840205F13C01501803
:103F800000F01AF920F0004904E000BF00BF4FF034
:103F9000010900BF00BF4846BDE8FC9F00207047F4
:103FA00070B504464FF0FF3026683146324601B9FD
:103FB00070BD00BF12F8013B202B01D33A2BF9D181
:103FC0003A2B11D105250E78302E08DB0E78392ECC
:103FD00005DC8E1C964202D10E78A6F13005052D27
:103FE00001DA28462260E3E7002000BFE0E7F0B5F1
:103FF00003461C6A5D6A00200DE0012686401640DB
:104000003EB187000F26BE40B443860001FA06F693
:104010003443461CB0B20828EFD3082011E0012633
:10402000864016405EB1A0F10806B7000F26BE40DC
:10403000B543A0F10806B60001FA06F63543461C62
:10404000B0B21028EBD31C625D62F0BD8161704795
:104050000AB1816100E081627047000010B54FF441
:10406000F8520C211848FFF7C2FF04220C21174810
:10407000FFF7BDFF4FF4706301220221124800F0E8
:1040800027F84FF47063012200210F4800F047F831
:104090004FF48053002202210B4800F019F84FF42E
:1040A000805301220021084800F039F8042301223E
:1040B0000221064800F00CF80423012200210348E5
:1040C00000F02DF810BD000000080240000C024076
:1040D000F0B504460D4616462168E268002019E056
:1040E000012787401F409FB14FEA400C032707FA82
:1040F0000CF7B943470005FA07F739434FEA400C7C
:10410000032707FA0CF7BA43470006FA07F73A43C2
:10411000471CB8B21028E3D32160E260F0BDF0B5CF
:104120000C461546012C03D146681E43466002E04A
:1041300046689E434660826800210DE001268E405D
:104140001E403EB14F000326BE40B2434E0005FA6A
:1041500006F632434E1CB1B21029EFD38260F0BD97
:1041600070B505460C46296901F1340000F024F8C9
:10417000A060296901F1380000F02AF8C4E90401BF
:10418000286990F8210000F00200E0710020E06151
:1041900070BD70B505460C4604F11A0000F049F8F0
:1041A00006462878032805D104F1140000F041F8F0
:1041B00046EA0046304670BD0146C8788A7842EA31
:1041C00000204A7842EA00200A7842EA002070473C
:1041D00070B50246D3790024250245EA136490792C
:1041E00040EA0323250245EA1364507940EA032399
:1041F000250245EA1364107940EA0323250245EAC3
:104200001364D07840EA0323200240EA13649178D3
:1042100041EA0323210241EA1364507840EA032370
:10422000250245EA1364117841EA03231846214622
:1042300070BD014648780A7842EA0020704770B5A0
:1042400004460D4628682060286AA06095F824007E
:10425000E071686A20F0FF000021C4E90401002039
:10426000E061A86AE0642046E16CFDF7A9FF06461C
:104270001EB9204600F003F80646304670BD2DE911
:10428000F047044620680669A16B206800F0E6F854
:10429000054615B12846BDE8F087E06B0078852813
:1042A00001D00220F7E720223046E16B00F0C0F891
:1042B0007078401C4FEA4018B8F1600F02D3B8F58F
:1042C000187F01D90220E6E700212046FDF77AFD9C
:1042D0000546042D00D102250DB12846DBE7A16B70
:1042E000206800F0BBF805460DB12846D3E7E06B27
:1042F0000078C02801D00220CDE7202206F120005E
:10430000E16B00F095F896F823002C300F21B0FBFC
:10431000F1F0B8EB401F01D20220BCE7402700BFFC
:1043200000212046FDF74EFD0546042D00D1022553
:104330000DB12846AFE7A16B206800F08FF8054665
:104340000DB12846A7E7E06B0078C12801D0022014
:10435000A1E7B7F5187F04D2F0192022E16B00F035
:1043600067F807F1200007464045D9D3B7F5187F15
:104370000AD8304602F0CCFA8146B01CFFF759FF4C
:10438000814501D0022086E7002084E71CB502F0B9
:10439000EFF8FCF723F8FCF73DFCFBF7D7FF15A07F
:1043A000FCF7A0FC01F02EFBFCF71CFEFCF7CCF8A0
:1043B000FCF776F8FCF7ECF9FCF772F802F06AFA11
:1043C00016E00120104940238022CDE90010002191
:1043D0000846FCF7DBFAFCF7DBF94FF4FA60FDF76F
:1043E00099FBFCF75DF8012204210B20FCF7F6F99C
:1043F000E7E70000444D41204F50454E20535543C0
:10440000434553530A0000002B000020F0B503463B
:104410001D460C46002000BF15F8017B14F801CBA7
:10442000A7EB0C00561E321E01D00028F4D0F0BDC0
:1044300030B503460C463AB100BF14F8015B03F8EF
:10444000015B551E2A1EF8D130BD10B5034600BFD2
:1044500003F8011B541E221EFAD110BD70B504468C
:104460000D460026A06BA84210D0204601F0D9FFCF
:1044700006465EB9607801232A4604F13C01FDF747
:1044800087FF10B14FF0FF350126A563304670BDA0
:104490002DE9F04103460D46164600240027A046AC
:1044A0002A48006800F4E060B0F5E06F03D100BF77
:1044B0004FF0040830E02548006800F4E060B0F5F3
:1044C000C06F03D101274FF0030825E01F480068A3
:1044D00000F4E060B0F5A06F02D10227B8461BE0FF
:1044E0001A48006800F4E060B0F5806F03D103273C
:1044F0004FF0010810E01548006800F4E060B0F5E6
:10450000407F03D104274FF0000805E04FF4A0607E
:1045100000F020F80227B846C7F1040005FA00F4BD
:10452000C8F104010F20C84030400443240108486A
:10453000C45403F01F01012088405911890001F182
:10454000E021C1F80001BDE8F08100000CED00E0C1
:1045500000E400E002490143024A11607047000094
:104560000000FA050CED00E02DE9F04780460C460E
:1045700004F11A00FFF75DFE10B10020BDE8F087DE
:10458000207820F04000401E00EB800101EBC005C8
:104590004FF00109002619E01449895D0819FFF759
:1045A00048FE0746B9F1000F09D0FF2D01D30020C6
:1045B000E4E7B94628466D1C28F8107005E04FF670
:1045C000FF70874201D00020D8E7761C0D2EE3D380
:1045D000207800F0400030B1FF2D01D30020CDE75E
:1045E000002028F815000120C8E70000A687000871
:1045F0002DE9F04704460D4616464FF00209022DFC
:1046000077D3E069A84274D92078012806D002281F
:104610004BD0032861D004280DD15FE02F4607EB73
:104620005707A06A00EB57212046FFF717FF814686
:10463000B9F1000F00D079E038467F1CC0F30801C3
:1046400004F13C0001EB000805F0010028B1F1B2D3
:1046500098F8000061F31F1000E0304688F8000071
:104660000120E070A06A00EB57212046FFF7F6FE1C
:104670008146B9F1000F00D058E0C7F3080104F1FA
:104680003C0001EB000805F0010010B1C6F3071073
:1046900006E098F8000000F0F000C6F3032108439C
:1046A00088F800000120E07040E0A06A00EB1521CE
:1046B0002046FFF7D3FE8146B9F1000F00D035E068
:1046C000B1B240F2FF1202EA450304F13C0298182D
:1046D00001F058FE0120E07028E000BFA06A00EB66
:1046E000D5112046FFF7BAFE8146B9F1000F01D07F
:1046F0001CE01CE0207804280BD040F2FF1101EAF6
:10470000850204F13C015018FFF756FD66F31B00CB
:10471000064640F2FF1101EA850204F13C015018FF
:10472000314601F0F5FD0120E07000BF00BF4846B2
:10473000BDE8F0872DE9F04707460C461546984638
:1047400084F80D800F20E07200202073002104F116
:104750001A0001F017FE681E00EB800101EBC00992
:1047600000200646824600BF4FF6FF70864204D006
:10477000484609F1010937F810600D4911F80A108F
:104780000819314601F0FEFD0EB94FF6FF760AF129
:10479000010082460D28E7D34FF6FF70864202D013
:1047A00037F8190008B945F040052570BDE8F087D5
:1047B000A68700082DE9F04105461D2700240026A4
:1047C0001A48046801E01948046804F0450000280C
:1047D000F9D004F0010030B11127012001F000FDF3
:1047E0003846BDE8F08104F0040028B11327042006
:1047F00001F0F6FC3846F4E701F05CFCA84202D078
:1048000008273846EDE70A4801F0EAFC002001F0ED
:1048100015FD06460748304010B91D273846E0E729
:10482000304600F009F807463846DAE7342C0140F4
:10483000FF07C00008E0F9FD01461C2001F000421E
:104840000AB100204EE001F080420AB1012049E0A7
:1048500001F000520AB1022044E001F080520AB196
:1048600003203FE001F000620AB104203AE001F0C9
:1048700080620AB1052035E001F080720AB106209D
:1048800030E001F400020AB107202BE001F48002BD
:104890000AB1082026E001F400120AB1092021E043
:1048A00001F480120AB10A201CE001F400220AB1CE
:1048B0000B2017E001F480320AB10C2012E001F461
:1048C00000420AB10D200DE001F480420AB10E2031
:1048D00008E001F400520AB10F2003E001F00802E1
:1048E00002B110207047000070B51D25002410484B
:1048F000046801E00E48046804F045000028F9D07F
:1049000004F0010028B11125012001F069FC2846BE
:1049100070BD04F0040028B11325042001F060FCF0
:104920002846F5E7034801F05BFC2846F0E7000065
:10493000342C0140FF07C00070B51D2500240B4832
:10494000046801E00948046804F045000028F9D033
:1049500004F0040028B11325042001F041FC28468E
:1049600070BD034801F03CFC2846F9E7342C0140B7
:10497000FF07C0002DE9F04107460E464FF01D0825
:10498000002500242348056801E02248056805F059
:1049900045000028F9D005F0010038B14FF01108AA
:1049A000012001F01DFC4046BDE8F08105F0040047
:1049B00030B14FF01308042001F012FC4046F3E739
:1049C00001F078FBB84203D04FF008084046EBE70F
:1049D000114801F005FC002001F030FC044604F40D
:1049E000604018B9200C30804046DDE704F40040F8
:1049F00010B14FF007080AE004F4804010B14FF006
:104A0000080804E004F4005008B14FF00B084046D9
:104A1000CAE70000342C0140FF07C00038B51C2550
:104A20000024134800901348046804E01148046807
:104A30000098401E009004F0450010B9009800282E
:104A4000F4D104F0040008B9009828B91325042013
:104A500001F0C6FB284638BD04F0400028B11D25F2
:104A6000402001F0BDFB2846F5E72846F3E70000AB
:104A7000A0860100342C01402DE9F04F8CB0064691
:104A800000200A903EA090E8004CC068CDE905BE29
:104A9000CDF810A007900FF2EC0ADAE9000ACDE990
:104AA000020A0FF2E00ADAE9000ACDE9000A384802
:104AB0000068C0F381000B900B9820B1012804D04E
:104AC000022828D103E0334927E0334925E0304864
:104AD000001F006800F03F072D48001F0068C0F36A
:104AE000881C2B48001F0068C0F30140401C4FEA9F
:104AF00040092748001F006800F48008B8F5800FBF
:104B000001D1254B00E0234BB3FBF7F000FB0CF089
:104B1000B0FBF9F101E01F4900BF00BF1C4800686D
:104B2000C0F3031404A8055D21FA05F218480068D3
:104B3000C0F3822402A8055D22FA05F0099014480A
:104B40000068C0F342341DF8045022FA05F00890C2
:104B500036B1012E06D0022E06D0032E0AD106E071
:104B60000A9108E00A9206E009980A9003E0089882
:104B70000A9000E000BF00BF0A980CB0BDE8F08FBB
:104B800000000000000000000102030406070809FD
:104B9000083802400024F40040787D0110B540F64A
:104BA000024000F00DF840F6034000F009F841F231
:104BB0000B1000F005F840F6164000F001F810BDAB
:104BC000074A02EB9011D1F8001800F01F030122F0
:104BD0009A401143024B03EB9012C2F80018704741
:104BE00000300240074A02EB9011D1F8001800F0A3
:104BF0001F0301229A409143024B03EB9012C2F82B
:104C00000018704700300240074A02EB9011D1F8BB
:104C1000001800F01F0301229A401143024B03EBDE
:104C20009012C2F800187047003002402DE9F05F82
:104C300006460F4690464FF000093568BA46BB4617
:104C4000022F02D3E869B84202D80220BDE8F09FE3
:104C5000B8F1000F11D02878042802D1F079022889
:104C60000BD04FF0FF3241462846FFF7C1FC81468A
:104C7000B9F1000F01D04846E8E700BF3946304699
:104C8000FFF7C4F8044604B93EE0012C01D102202C
:104C9000DCE7601C08B90120D8E7287804280AD08E
:104CA000002239462846FFF7A3FC8146B9F1000FE0
:104CB00001D04846CAE7D5E90610801E814206D2D7
:104CC000A869401CA861287940F0010028710BF107
:104CD0000100A04201D1A34612E0287804280DD19A
:104CE000ABEB0A00421C002351462846FCF764FB4C
:104CF0008146B9F1000F01D04846A7E7A346A24676
:104D00002746E869B842B9D800BF2878042830D1CE
:104D1000B8F1000F02D10020F0712AE0F079D8B983
:104D2000B76811E039463046FFF770F80446022CA8
:104D300001D202208AE7601C08B9012086E7781CAE
:104D4000844200D002E07F1C4745EBD100BF4745BD
:104D50000FD10220F0710CE0F079032809D1B0687E
:104D6000404506D8B169B0680844404501D30220E7
:104D7000F07100206AE700002DE9F84F06468946E9
:104D800014461D274FF000084FF0000A4FF0000BAB
:104D90003546002000901EB919273846BDE8F88F27
:104DA0001D2072490870002071490860714908602F
:104DB00000221146104601F0A9F90021084601F031
:104DC000C9F901F0F9F901F0E3F9002001F036FA30
:104DD00000F0007010B106273846DFE7664800781B
:104DE000022802D104024FEA5929601E00EA040A8F
:104DF000002C1BDDB4F5006F18DCBAF1000F15D1E3
:104E0000204600F0F3FD834640222146102001F0A9
:104E100057F9002001F030FA01F06EF91020FFF789
:104E2000C9FC07461D2F04D03846B7E71927384676
:104E3000B4E70020514908604E4804605A460168B2
:104E40004FF0FF3001F062F90221002001F082F9F9
:104E500001F0BCF940224946112001F031F900204F
:104E600001F00AFA01F048F91120FFF7A3FC074608
:104E70001D2F01D0384691E741480068012851D1E3
:104E800011E04FF4004001F0B1F960B14FF00008BB
:104E900005E001F059F945F8280008F10108B8F1DA
:104EA000080FF6D3203540F22A6001F09FF9002860
:104EB000E7D0022001F09AF928B11227022001F070
:104EC0008FF938466AE7082001F090F928B11427D5
:104ED000082001F085F9384660E7202001F086F9C6
:104EE00028B11627202001F07BF9384656E74FF409
:104EF000007001F07BF930B117274FF4007001F01A
:104F00006FF938464AE703E001F01EF928602D1DCD
:104F10004FF4001001F06AF90028F5D1194801F0AA
:104F20005FF921E016480068E8B940F2293001F045
:104F300071F901F037F921463046FDF763FD12485B
:104F4000009006E00098401E0090009808B91C20D0
:104F500024E7202203210D48FDF71BFB20B9009810
:104F60000028EFD100E01927384617E71C00002081
:104F700020000020140000200C0000201800002059
:104F800010000020FF07C000A0860100006402405E
:104F90002DE9F04F85B081468A4614461D25002034
:104FA00004900026834603904F468046029001906D
:104FB0000090B9F1000F04D11925284605B0BDE8CD
:104FC000F08F1D20B04908700020B0490860B0493A
:104FD000086000221146104601F098F800210846AA
:104FE00001F0B8F801F0E8F801F0D2F8002001F083
:104FF00025F900F0007010B106252846DEE7A54827
:105000000078022802D104024FEA5A2A601E00EA00
:10501000040B002C1BDDB4F5006F18DCBBF1000F96
:1050200015D1204600F0E2FC0390402221461020DA
:1050300001F046F8002001F01FF901F05DF81020A2
:10504000FFF7B8FB05461D2D04D02846B6E7192505
:105050002846B3E790480088010440220D2001F063
:105060002FF8002001F008F901F046F80D20FFF7B5
:10507000A1FB05461D2D01D028469FE7002001F029
:10508000DDF80190854800901AE00098401E0090DD
:1050900081480088010440220D2001F011F8002011
:1050A00001F0EAF801F028F80D20FFF783FB054630
:1050B0001D2D01D0284681E7002001F0BFF80190A6
:1050C000019800F4807010B900980028DDD1009894
:1050D00008B91C2072E740225146182000F0F0FF6A
:1050E000002001F0C9F801F007F81820FFF762FB73
:1050F00005461D2D01D0284660E70020684908605C
:1051000063480460039A01684FF0FF3000F0FEFF2F
:105110000021084601F01EF801F058F861480068C7
:10512000012865D134E04FF4804001F05FF878B396
:1051300057480068A0EB080020281DD2544800788A
:10514000A0EB080000F0030008B1012000E00020FF
:105150004F490968A1EB080100EB9100029000267D
:1051600006E0386801F004F83F1D08F10408761CD9
:10517000029886420CD2F4E7002604E057F8260095
:1051800000F0F6FF761C082EF8D3203708F120082F
:1051900040F21A6001F02AF80028C4D0022001F081
:1051A00025F828B11225022001F01AF8284605E753
:1051B000082001F01BF828B11425082001F010F890
:1051C0002846FBE6102001F011F828B11525102023
:1051D00001F006F82846F1E64FF4007001F006F8F9
:1051E000A8B317254FF4007000F0FAFF2846E5E653
:1051F0002C48006860BB40F21A3001F00BF82146E1
:105200004846FDF705FD00F0CDFF2448009006E07C
:105210000098401E0090009808B91C20CEE620227D
:1052200003212148FDF7B5F910B900980028EFD106
:1052300000BF1648006818B9134800781D28F8D038
:10524000114800781D2807D00F480078B6E603E023
:10525000FFE719252846B1E6144800F0C1FF04A86D
:1052600000F044FB054603E004A800F03FFB0546C0
:105270001D2D07D19DF810000728F5D09DF81000CE
:105280000628F1D0284699E61C00002020000020C6
:10529000140000200C0000200E000020A086010059
:1052A000180000201000002000640240FF07C0002A
:1052B00070B504461D2522480078052802D11B251B
:1052C000284670BD1E48007838B11D480078012876
:1052D00003D01B480078022830D1B4F5805F02D19A
:1052E0001B252846EDE7B4F5006F12D14FF480205E
:1052F00000F028F805461D2D20D10223002211467A
:10530000104600F0B3FE204600F0A2FE00F078FF49
:1053100014E094B94FF4803000F014F805461D2DC8
:105320000CD1022300221146104600F09FFE2046B9
:1053300000F08EFE00F064FF00E019252846C0E76B
:105340000C00002070B505461D24002000F076FFFB
:1053500000F0007010B10624204670BD3649374871
:10536000008800F0BBFD04461D2C01D02046F4E768
:10537000B5F5803F2CD130484068284028B32F48ED
:10538000008801044022372000F09AFE002000F03F
:1053900073FF00F0B1FE3720FFF70CFA04461D2C16
:1053A00001D02046D9E740220021062000F088FEE7
:1053B000002000F061FF00F09FFE0620FFF7FAF9E1
:1053C00004461D2C02D02046C7E71A242046C4E715
:1053D000B5F5802F2CD118484068284028B31748CD
:1053E000008801044022372000F06AFE002000F00F
:1053F00043FF00F081FE3720FFF7DCF904461D2C47
:1054000001D02046A9E740220221062000F058FEE4
:10541000002000F031FF00F06FFE0620FFF7CAF910
:1054200004461D2C02D0204697E71A24204694E714
:105430001924204691E70000040000200E000020FF
:1054400070B500210023002400200022244D2D7877
:105450001DB1234D2D78012D2DD1224DAD88C5F3E1
:10546000072101F0030542EA85221E4D297942EA0F
:105470008102AD68290E42EA91121A4DAD68C5F35A
:1054800007418D076B0F174D2D89C5F3072143EA9F
:10549000D113144D6D68C5F3074101F00F049D1C35
:1054A000012606FA05F5561C05FB06F00125A54068
:1054B0006843800A13E00A4D2D78022D0FD1094D63
:1054C00029798D06AA0A074DAD68290E42EA012204
:1054D000044DAD68C5F307410A43551C680270BD11
:1054E0000C000020B80C002030B501461D20002221
:1054F00009B9192030BDA84B1B7881F83830A74B6B
:105500001B88A1F84430A64B1B681A0E0A70A44BE6
:105510001B68C3F3074213024B80A14B1B88C3F3E4
:1055200007224B8813434B809D4B1A7813064B6020
:105530009B4B5B681A0E4B6843EA02434B60984BE7
:105540005B68C3F307424B6843EA02234B60944B0A
:105550009B88C3F307224B6813434B60904B1A7927
:105560000A729B681A0E4A728D4B9B68C3F30742FE
:105570001306CB608A4B1B89C3F30722CB6843EA2F
:105580000243CB60864B1A7ACB681343CB60844BC3
:10559000DB681A0ECB681343CB60814BDB68C3F327
:1055A000074202F00F034FF6FF7404EA03230B8255
:1055B0007B4B9B89C3F307220B8A13430B82784BE7
:1055C0001A7B53088B74774B1B681A0E93090B7563
:1055D000744B1B68C3F307424A75724B1B88C3F3B5
:1055E00007228A756F4B1A78CA755B681A0E140108
:1055F0000C836C4B5B68C3F307420B8B43EA1214BA
:105600000C8302F00F048C76664B9B88C3F3072251
:10561000D409CC76C2F380140C77C2F340144C77D3
:10562000C2F300148C775C4B1B781BB15A4B1B7870
:10563000012B44D193071C0D0C625A4B1A790B6A4B
:1056400043EA82040C62574B9B681A0E0B6A43EACA
:1056500092140C62C2F3C20424235C5402F00704C7
:1056600025235C544F4B9B68C3F307425409262300
:105670005C54C2F3820427235C5493075C0F2823F5
:105680005C54484B1B89C3F3072228235B5C43EA25
:10569000D21428235C548C7E0123A3400B640B6A34
:1056A0005B1CCB632824645CA41C0125A540CB6B48
:1056B0006B43CB63D1E90F346343CB631DE0364BBF
:1056C0001B78022B19D1374B1A7993069C0A0C626E
:1056D000344B9B681A0E0B6A43EA02240C62314B6E
:1056E0009B68C3F307420B6A13430B624FF40073CA
:1056F0000B640B6A5B1CDB04CB63C2F380142923AD
:105700005C5493065C0E2A235C54264B1A7A2A2397
:105710005B5C43EAD2142A235C5402F07F042B23FF
:105720005C54204BDB681A0ED4092C235C54C2F362
:1057300082042D235C5493071C0F2E235C54194BB9
:10574000DB68C3F307422E235B5C43EA92142E23EB
:105750005C54C2F340142F235C54124B9B89C3F357
:105760000722D40930235C54C2F3801431235C54E3
:10577000C2F3401432235C54C2F3001433235C544C
:10578000C2F3810481F83440064B1A7B540881F837
:10579000354000BFAEE600000C0000200E000020E7
:1057A000C80C0020B80C002038B51D240120009042
:1057B00000F038FD10B91A24204638BD3D48007865
:1057C000032824D0C0220021022000F079FC002010
:1057D00000F052FD00F090FCFFF786F804461D2C07
:1057E00001D02046E9E7002000F028FD324908609A
:1057F000012000F023FD30494860022000F01EFD2A
:105800002D498860032000F019FD2B49C860294804
:10581000007858B127480078012807D0254800783B
:10582000022803D023480078042812D14022002106
:10583000032000F045FC002000F01EFD00F05CFCA1
:1058400069460320FFF796F804461D2C01D0204638
:10585000B3E71848007803282AD0BDF8000017499C
:105860000880BDF800000104C022092000F028FCD7
:10587000002000F001FD00F03FFCFFF735F8044682
:105880001D2C01D0204698E7002000F0D7FC0C49E1
:105890000860012000F0D2FC09494860022000F0B5
:1058A000CDFC07498860032000F0C8FC0449C860AB
:1058B000204682E70C000020C80C00200E000020CB
:1058C000B80C002070B504461D2521044022072095
:1058D00000F0F6FB002000F0CFFC00F00DFC0720EC
:1058E000FEF768FF0546284670BD00007CB50446FB
:1058F0001D250020019000902648008801044022C8
:105900000D2000F0DDFB002000F0B6FC00F0F4FB01
:1059100021480068019002E01F480068019001984A
:1059200000F045000028F7D0019800F0010028B1F0
:105930001125012000F054FC28467CBD019800F0A0
:10594000040028B11325042000F04AFC2846F4E79F
:1059500000F0B0FB019001980D2802D008252846E0
:10596000EBE70E4800F03CFC002000F067FC0090E4
:105970000098C0F34320207009490098084010B9EE
:105980001D252846D9E70098FEF756FF054628460C
:10599000D3E700000E000020342C0140FF07C000B8
:1059A00008E0F9FD70B504461D2514B919252846EF
:1059B00070BD0D480088010440220D2000F080FBDE
:1059C000002000F059FC00F097FB0D20FEF7F2FEDE
:1059D00005461D2D01D02846EAE7002000F02EFCE8
:1059E00020602846E4E700000E0000200146002267
:1059F00002E04910501CC2B20129FAD1F02000EA9D
:105A00000210704710B5002401220DA10D48FDF7CA
:105A1000C1FA04460D2C04D10BA0FBF763F900BFBB
:105A2000FEE744B121460FA0FBF75CF917A0FBF796
:105A300059F900BFFEE71DA0FBF754F910BD0000A7
:105A4000303A0000D81C00204E6F2066696C65203B
:105A500073797374656D20696E2053442E2E2E0D5C
:105A60000A00000046696C65206D6F756E742065D4
:105A700072726F7220666F722053442120526573D8
:105A8000756C743A282564290D0A0000496E697402
:105A9000696C697A6174696F6E206572726F7220C9
:105AA0006D61796265210D0A0000000046696C6530
:105AB0002073797374656D206578697374656420EB
:105AC000696E205344210D0A0000000010B51D240A
:105AD000FFF764F8FEF7C2FA00F050FB00F068F937
